:020000040800F2
:10000000008001206DF70008894100088B4100083D
:100010008D4100088F410008914100080000000058
:1000200000000000000000000000000093410008F4
:100030009541000800000000974100089941000820
:10004000BDF70008BDF70008BDF70008BDF70008C0
:10005000BDF70008BDF70008BDF70008BDF70008B0
:10006000BDF70008BDF70008BDF70008BDF70008A0
:10007000BDF70008BDF70008BDF70008BDF7000890
:10008000BDF70008BDF70008BDF70008BDF7000880
:10009000BDF70008BDF70008BDF70008BDF7000870
:1000A000BDF70008BDF70008BDF70008BDF7000860
:1000B000BDF70008BDF70008BDF70008BDF7000850
:1000C000BDF70008BDF70008BDF70008BDF7000840
:1000D000BDF70008AD410008C1410008BDF70008A8
:1000E000BDF70008BDF70008BDF70008BDF7000820
:1000F000BDF70008BDF70008BDF70008BDF7000810
:10010000BDF70008BDF70008BDF70008BDF70008FF
:10011000BDF70008BDF70008BDF70008BDF70008EF
:10012000BDF70008BDF70008BDF70008BDF70008DF
:10013000BDF70008BDF70008BDF70008BDF70008CF
:10014000BDF70008BDF70008BDF70008BDF70008BF
:10015000BDF70008BDF70008BDF70008BDF70008AF
:10016000BDF70008BDF70008BDF70008BDF700089F
:10017000BDF70008BDF70008BDF70008000000004B
:08018000BDF70008BDF70008FF
:1001900010B5054C237833B9044B13B10448AFF3C1
:1001A00000800123237010BDE80200200000000041
:1001B000A492030808B5034B1BB103490348AFF3EE
:1001C000008008BD00000000EC020020A49203089B
:1001D00001F0FF01102A2BDB10F0070F08D010F8F8
:1001E000013B013A8B422DD010F0070F42B3F6D1FC
:1001F000F0B441EA012141EA014122F007047FF015
:1002000000070023F0E80256083C85EA010586EA6B
:10021000010685FA47F5A3FA87F586FA47F6A5FAA7
:1002200087F68EB9EED1F0BC01F0FF0102F00702B3
:1002300032B110F8013B013A83EA010313B1F8D15E
:100240000020704701387047002D06BF354603383F
:10025000073815F0010F07D1013015F4807F02BF78
:10026000013015F4C03F0130F0BC0138704700BFC9
:1002700010F8012B11F8013B012A28BF9A42F7D050
:10028000D01A7047034613F8012B002AFBD1181A25
:100290000138704781F0004102E000BF83F0004365
:1002A00030B54FEA41044FEA430594EA050F08BF11
:1002B00090EA020F1FBF54EA000C55EA020C7FEAD5
:1002C000645C7FEA655C00F0E2804FEA5454D4EB52
:1002D0005555B8BF6D420CDD2C4480EA020281EA1C
:1002E000030382EA000083EA010180EA020281EA54
:1002F0000303362D88BF30BD11F0004F4FEA0131A6
:100300004FF4801C4CEA113102D0404261EB4101B4
:1003100013F0004F4FEA03334CEA133302D052423A
:1003200063EB430394EA050F00F0A780A4F10104F6
:10033000D5F1200E0DDB02FA0EFC22FA05F2801830
:1003400041F1000103FA0EF2801843FA05F3594116
:100350000EE0A5F120050EF1200E012A03FA0EFC95
:1003600028BF4CF0020C43FA05F3C01851EBE371BF
:1003700001F0004507D54FF0000EDCF1000C7EEBDC
:1003800000006EEB0101B1F5801F1BD3B1F5001F1A
:100390000CD349085FEA30004FEA3C0C04F1010439
:1003A0004FEA445212F5800F80F09A80BCF1004F62
:1003B00008BF5FEA500C50F1000041EB045141EAE4
:1003C000050130BD5FEA4C0C404141EB0101013CAD
:1003D00028BFB1F5801FE9D291F0000F04BF01469C
:1003E0000020B1FA81F308BF2033A3F10B03B3F16E
:1003F00020020CDA0C3208DD02F1140CC2F10C02FE
:1004000001FA0CF021FA02F10CE002F11402D8BF5B
:10041000C2F1200C01FA02F120FA0CFCDCBF41EA27
:100420000C019040E41AA2BF01EB0451294330BDF6
:100430006FEA04041F3C1CDA0C340EDC04F11404D3
:10044000C4F1200220FA04F001FA02F340EA0300AA
:1004500021FA04F345EA030130BDC4F10C04C4F1F0
:10046000200220FA02F001FA04F340EA03002946D0
:1004700030BD21FA04F0294630BD94F0000F83F41A
:10048000801306BF81F480110134013D4EE77FEAFD
:10049000645C18BF7FEA655C29D094EA050F08BF49
:1004A00090EA020F05D054EA000C04BF194610462A
:1004B00030BD91EA030F1EBF0021002030BD5FEA6E
:1004C000545C05D14000494128BF41F0004130BD96
:1004D00014F580043CBF01F5801130BD01F00045EA
:1004E00045F0FE4141F470014FF0000030BD7FEA5D
:1004F000645C1ABF194610467FEA655C1CBF0B4658
:10050000024650EA013406BF52EA033591EA030F6E
:1005100041F4002130BD00BF90F0000F04BF002166
:10052000704730B54FF4806404F132044FF0000599
:100530004FF0000150E700BF90F0000F04BF002112
:10054000704730B54FF4806404F1320410F0004578
:1005500048BF40424FF000013EE700BF42004FEA73
:10056000E2014FEA31014FEA02701FBF12F07F43F0
:1005700093F07F4F81F06051704732F07F4208BFA7
:10058000704793F07F4F04BF41F40021704730B5AE
:100590004FF4607401F0004521F000411CE700BFFA
:1005A00050EA010208BF704730B54FF000050AE07D
:1005B00050EA010208BF704730B511F0004502D57E
:1005C000404261EB41014FF4806404F132045FEA80
:1005D000915C3FF4D8AE4FF003025FEADC0C18BF29
:1005E00003325FEADC0C18BF033202EBDC02C2F11B
:1005F000200300FA03FC20FA02F001FA03FE40EAAD
:100600000E0021FA02F11444BDE600BF70B54FF0B0
:10061000FF0C4CF4E06C1CEA11541DBF1CEA13558E
:1006200094EA0C0F95EA0C0F00F0DEF82C4481EAF6
:10063000030621EA4C5123EA4C5350EA013518BF16
:1006400052EA033541F4801143F4801338D0A0FB03
:1006500002CE4FF00005E1FB02E506F00042E0FBB0
:1006600003E54FF00006E1FB03569CF0000F18BFB6
:100670004EF0010EA4F1FF04B6F5007F64F540745E
:1006800004D25FEA4E0E6D4146EB060642EAC621F1
:1006900041EA55514FEAC52040EA5E504FEACE2E5E
:1006A000B4F1FD0C88BFBCF5E06F1ED8BEF1004F61
:1006B00008BF5FEA500E50F1000041EB045170BDDD
:1006C00006F0004646EA010140EA020081EA030121
:1006D000B4EB5C04C2BFD4EB0C0541EA045170BD1D
:1006E00041F480114FF0000E013C00F3AB8014F197
:1006F000360FDEBF002001F0004170BDC4F10004E0
:10070000203C35DA0C341BDC04F11404C4F1200560
:1007100000FA05F320FA04F001FA05F240EA0200BB
:1007200001F0004221F0004110EBD37021FA04F6F1
:1007300042EB06015EEA430E08BF20EAD37070BDAB
:10074000C4F10C04C4F1200500FA04F320FA05F00A
:1007500001FA04F240EA020001F0004110EBD3700C
:1007600041F100015EEA430E08BF20EAD37070BD7C
:10077000C4F1200500FA05F24EEA020E20FA04F355
:1007800001FA05F243EA020321FA04F001F0004104
:1007900021FA04F220EA020000EBD3705EEA430E75
:1007A00008BF20EAD37070BD94F0000F0FD101F0A4
:1007B0000046400041EB010111F4801F08BF013CDD
:1007C000F7D041EA060195F0000F18BF704703F01B
:1007D0000046520043EB030313F4801F08BF013DA2
:1007E000F7D043EA0603704794EA0C0F0CEA13555E
:1007F00018BF95EA0C0F0CD050EA410618BF52EA18
:100800004306D1D181EA030101F000414FF000001D
:1008100070BD50EA410606BF1046194652EA43062B
:1008200019D094EA0C0F02D150EA013613D195EA9F
:100830000C0F05D152EA03361CBF104619460AD1E7
:1008400081EA030101F0004141F0FE4141F47001F1
:100850004FF0000070BD41F0FE4141F4780170BDE1
:1008600070B54FF0FF0C4CF4E06C1CEA11541DBF46
:100870001CEA135594EA0C0F95EA0C0F00F0A7F848
:10088000A4EB050481EA030E52EA03354FEA013175
:1008900000F088804FEA03334FF0805545EA131388
:1008A00043EA12634FEA022245EA111545EA106550
:1008B0004FEA00260EF000419D4208BF964244F1E7
:1008C000FD0404F5407402D25B084FEA3202B61A06
:1008D00065EB03055B084FEA32024FF480104FF4DA
:1008E000002CB6EB020E75EB030E22BFB61A75464E
:1008F00040EA0C005B084FEA3202B6EB020E75EBE1
:10090000030E22BFB61A754640EA5C005B084FEA48
:100910003202B6EB020E75EB030E22BFB61A754615
:1009200040EA9C005B084FEA3202B6EB020E75EB20
:10093000030E22BFB61A754640EADC0055EA060EE1
:1009400018D04FEA051545EA16754FEA06164FEA24
:10095000C30343EA52734FEAC2025FEA1C1CC0D1D0
:1009600011F4801F0BD141EA00014FF000004FF05D
:10097000004CB6E711F4801F04BF01430020B4F11E
:10098000FD0C88BFBCF5E06F3FF6AFAEB5EB030CD6
:1009900004BFB6EB020C5FEA500C50F1000041EBD3
:1009A000045170BD0EF0004E4EEA113114EB5C04A0
:1009B000C2BFD4EB0C0541EA045170BD41F4801173
:1009C0004FF0000E013C90E645EA060E8DE60CEA7B
:1009D000135594EA0C0F08BF95EA0C0F3FF43BAF98
:1009E00094EA0C0F0AD150EA01347FF434AF95EA4F
:1009F0000C0F7FF425AF104619462CE795EA0C0F33
:100A000006D152EA03353FF4FDAE1046194622E7FF
:100A100050EA410618BF52EA43067FF4C5AE50EAD9
:100A200041047FF40DAF52EA43057FF4EBAE12E7C9
:100A30004FF0FF3C06E000BF4FF0010C02E000BFAA
:100A40004FF0010C4DF804CD4FEA410C7FEA6C5C8D
:100A50004FEA430C18BF7FEA6C5C1BD001B050EA30
:100A6000410C0CBF52EA430C91EA030F02BF90EA1B
:100A7000020F0020704710F1000F91EA030F58BFDA
:100A8000994208BF90422CBFD8176FEAE37040F03C
:100A9000010070474FEA410C7FEA6C5C02D150EADA
:100AA000013C07D14FEA430C7FEA6C5CD6D152EA95
:100AB000033CD3D05DF8040B704700BF844610465A
:100AC00062468C461946634600E000BF01B5FFF759
:100AD000B7FF002848BF10F1000F01BD4DF808ED29
:100AE000FFF7F4FF0CBF012000205DF808FB00BFFA
:100AF0004DF808EDFFF7EAFF34BF012000205DF854
:100B000008FB00BF4DF808EDFFF7E0FF94BF0120A0
:100B100000205DF808FB00BF4DF808EDFFF7CEFFA1
:100B200094BF012000205DF808FB00BF4DF808EDE0
:100B3000FFF7C4FF34BF012000205DF808FB00BFB1
:100B40004FEA410C7FEA6C5C02D150EA013C0AD1C9
:100B50004FEA430C7FEA6C5C02D152EA033C02D1BB
:100B60004FF0000070474FF0010070474FEA41021C
:100B700012F5001215D211D56FF47873B3EB6252EF
:100B800012D94FEAC12343F0004343EA505311F016
:100B9000004F23FA02F018BF404270474FF00000A8
:100BA000704750EA013005D111F0004008BF6FF0E6
:100BB000004070474FF00000704700BF4A0011D25C
:100BC00012F5001211D20DD56FF47873B3EB6252A7
:100BD0000ED44FEAC12343F0004343EA505323FAB3
:100BE00002F070474FF00000704750EA013002D128
:100BF0004FF0FF3070474FF0000070474FEA41025E
:100C0000B2F1E04324BFB3F5001CDCF1FE5C0DD96A
:100C100001F0004C4FEAC0024CEA5070B2F1004FB4
:100C200040EB830008BF20F00100704711F0804FB7
:100C300021D113F13872BCBF01F00040704741F47C
:100C400080114FEA5252C2F11802C2F1200C10FA80
:100C50000CF320FA02F018BF40F001004FEAC12364
:100C60004FEAD32303FA0CFC40EA0C0023FA02F308
:100C70004FEA4303CCE77FEA625307D150EA0133DE
:100C80001EBF4FF0FE4040F44000704701F00040AE
:100C900040F0FE4040F40000704700BF7BB972B9DD
:100CA0000029BEBF00204FF0004106E008BF002829
:100CB0001CBF6FF000414FF0FF3001F041B9ADF1C2
:100CC000080C6DE904CE002909DB002B1ADB00F0CB
:100CD00083F8DDF804E0DDE9022304B07047404208
:100CE00061EB4101002B1BDB00F076F8DDF804E03E
:100CF000DDE9022304B0404261EB4101524263EB63
:100D000043037047524263EB430300F065F8DDF89C
:100D100004E0DDE9022304B0404261EB4101704789
:100D2000524263EB430300F057F8DDF804E0DDE9DD
:100D3000022304B0524263EB4303704753B94AB9EC
:100D4000002908BF00281CBF4FF0FF314FF0FF30D3
:100D500001F0F6B8ADF1080C6DE904CE00F03CF8F6
:100D6000DDF804E0DDE9022304B0704738B5002265
:100D7000002304460D46FFF7BBFE28B9204629464E
:100D8000BDE8384000F00AB8204605F1004100F007
:100D900005F8404261EB410138BD00BFD0B50C4BB6
:100DA000002206460F46FFF731FCFFF707FF044617
:100DB000FFF7B2FB074B0022FFF728FC02460B4669
:100DC00030463946FFF76AFAFFF7F8FE2146D0BDF4
:100DD0000000F03D0000F0412DE9F047089D044679
:100DE0008C46002B40F083808A42174647D9B2FADE
:100DF00082F242B1C2F1200024FA00F09140974003
:100E000040EA010C94404FEA1748230CBCFBF8F66B
:100E10001FFA87FE08FB16C143EA014306FB0EF1E9
:100E2000994209D9FB1806F1FF3080F019819942E7
:100E300040F21681023E3B445B1AA4B2B3FBF8F0C9
:100E400008FB103344EA034400FB0EFEA64509D913
:100E50003C1900F1FF3380F00581A64540F2028184
:100E600002383C4440EA0640A4EB0E0400261DB1C3
:100E7000D4400023C5E900433146BDE8F08702B9FC
:100E8000FFDEB2FA82F2002A50D1CB1B4FEA174E96
:100E90001FFA87F80126B3FBFEFC210C0EFB1C3366
:100EA00041EA034108FB0CF38B4207D979180CF196
:100EB000FF3002D28B4200F2E9808446C91AA3B205
:100EC000B1FBFEF00EFB101143EA014408FB00F8F1
:100ED000A04507D93C1900F1FF3302D2A04500F22A
:100EE000D9801846A4EB080440EA0C40BFE78B42C7
:100EF00009D9002D00F0B1800026C5E90001304677
:100F00003146BDE8F087B3FA83F6002E4AD18B4212
:100F100002D3824200F2B880841A61EB03010120FF
:100F20008C46002DA8D0C5E9004CA5E7C2F12003EE
:100F300020FA03F6974001FA02F04FEA174ED94023
:100F40003043030CB1FBFEF61FFA87F80EFB1611B7
:100F500043EA014306FB08F1994204FA02F409D975
:100F6000FB1806F1FF3C80F08D80994240F28A80A8
:100F7000023E3B445B1A81B2B3FBFEF00EFB103322
:100F800041EA034100FB08F38B4207D9791800F1CD
:100F9000FF3C73D28B4271D902383944CB1A40EAF4
:100FA000064678E7C6F1200C03FA06F422FA0CF3A1
:100FB0001C4320FA0CF701FA06F34FEA144E21FA0B
:100FC0000CF11F433B0CB1FBFEF91FFA84F80EFB3A
:100FD000191143EA014109FB08FA8A4502FA06F2AF
:100FE00000FA06F308D9611809F1FF3048D28A45A2
:100FF00046D9A9F102092144A1EB0A01BFB2B1FB14
:10100000FEF00EFB101147EA014700FB08F8B84557
:1010100007D9E71900F1FF312ED2B8452CD9023893
:10102000274440EA0940A7EB0807A0FB02894F4587
:10103000C64649461AD317D05DB1B3EB0E0267EB33
:10104000010707FA0CFCF2404CEA0202F740C5E93E
:10105000002700263146BDE8F0872E4628460BE7DC
:101060000646E9E61846FDE64345E5D2B8EB020E32
:1010700069EB04010138DFE70846D2E760468DE7F7
:101080008146B9E7664675E730464AE7ACF1020C9F
:10109000394413E702383C4424E700BF03685A0090
:1010A0004CBF43F0004323F000431844704700BF97
:1010B0002DE9F84329B34F1E044615463E464FF02E
:1010C000000808EB060101EBD171491004EBC109DE
:1010D0004846FFF7E3FF0346C80008308F4220442C
:1010E00009D0AB4209D8FFF7D9FF0138A8420AD28C
:1010F00001F10108E5E7AB4205D9884501D04E1E54
:10110000DFE74FF000094846BDE8F883012807D023
:10111000022807D0044B00280CBF18460020704757
:101120000248704702487047D1170008D5170008D9
:10113000D917000830B5234B83B004468D1E3BB34E
:1011400001A92846AFF30080E8B101992A46FFF7CC
:10115000AFFF0146B8B1FFF7A1FF4B68A064012BB8
:101160002BD0002B01F1040023DBFFF797FF0023B6
:10117000C4E913030368002B10DBFFF78FFF206126
:10118000002003B030BD00230920236103B030BD2F
:101190000D490E48091AC9100191D7E7C3F303603E
:1011A000FFF7B4FF0028206114BF0020092003B01E
:1011B00030BD0123C4E91303DCE7002323610520CC
:1011C000DFE700BF0000000030200408981004088A
:1011D0000368DA0710B5044606D49B0700F14800FF
:1011E00009D500F04BFC2368590709D51A070ED51D
:1011F000DB0613D510BD00F039FC23685907F5D480
:1012000004F1D00000F042FC23681A07F0D404F582
:10121000A87000F043FC2368DB06EBD404F5E8700B
:10122000BDE8104000F07EBC0346006800B11844E1
:10123000704700BF09207047704700BF70B5044673
:101240000E46316C2046FFF775FF054688B9336CB2
:101250006361324623692146012098470828F0D06F
:10126000072806D12846316CFFF7E6FF301D00F055
:10127000F1FB2FF062FC00BF2DE9F0470D1D064683
:1012800014460FCDADF5727D0DF10C0CACE80F00DE
:101290000FCDACE80F000FCDACE80F0095E80F00C4
:1012A00002ADF768D6F818808CE80F0000232B6099
:1012B00021E02B6C73614FF4F07229467AA830F06C
:1012C0009DFA33697AAA314650469847889BCDE902
:1012D000005821466B648146334632460120B847A8
:1012E0000446E8B94FF4F0727AA9284630F086FA3D
:1012F000B9F1080F1BD1296C3046FFF71BFF0934E9
:101300005FFA84FA81460028D3D0AB6B4AF0100113
:10131000CDE9005832466B6401203346B84708B126
:101320004FF0090948460DF5727DBDE8F087B9F127
:10133000070FF5D12046296CFFF77EFF03A800F0C8
:1013400089FB00BF406C7047F0B5CB6B0B640E1D82
:101350000F4605460FCEF9B001AC0FC40FCE0FC437
:101360000FCE0FC496E80F004FF0FF3684E80F0051
:10137000009606E02B696A462946984708280446E5
:1013800008D110992846FFF7D5FE0028F2D0092091
:1013900079B0F0BD6846FFF71BFF062CF7D1394640
:1013A0002846FFF74BFF00BF30B4DD6BC1608261A0
:1013B00019461D64002230BC5EE700BF70B5C668E8
:1013C00043690B64AEB903690A4604460D460146FB
:1013D00002209847072805D008280FD12946204623
:1013E000FFF72CFF3046296CFFF726FF281D00F081
:1013F00031FB0122FFF740FF2FF09FFB2FF09DFBF9
:10140000C2681AB1CA6B0A64002235E79CE700BFC4
:10141000704700BF836801460BB101201847704731
:10142000012912D009D873B90F2A0CD800EB820217
:1014300018465368009A136070470339012994BF16
:10144000012002207047022070470846704700BF05
:1014500010B584B0002303AC0A4600941946FFF788
:10146000DFFF039804B010BD012912D009D873B969
:101470000F2A0CD800EB8200009A126842601846CE
:1014800070470339012994BF0120022070470220D0
:1014900070470846704700BF10B584B0002303AC06
:1014A000039200940A461946FFF7DEFF04B010BD10
:1014B000F0B5D36B1364151D8C4606460FCDADF504
:1014C0000F7D17AC0FC40FCD0FC40FCD0FC495E81F
:1014D0000F004FF0FF3784E80F006546169710E0C5
:1014E000FFF7DAFF294616A8B047034616AA694651
:1014F000082083B9049B9847052804460CD0092886
:1015000009D026996846FFF715FE03466A460C2166
:1015100016A8002BE4D0092416A8FFF759FE204690
:101520000DF50F7DF0BD00BF2DE9F04FCC6C89B0FB
:101530000D4654F8041B0694174600F003081E4697
:10154000002B79D00B0CDAB209048DF81D30022380
:1015500004EB820405918DF81C302B6DB8F1020F5D
:1015600008BFAC6B13F001030CD0384605A900F09E
:1015700073FB18B9082009B0BDE8F08F092009B045
:10158000BDE8F08FD4F800A0BAF1000FEDD00193C0
:1015900000F008030293022E4AD0B4F800A0B4F879
:1015A00002900434AA6C29F0010B0F2138469344B1
:1015B000FFF74EFF834539D82AF001025A44824290
:1015C00094BF002001204FEA490303F002030AF010
:1015D000010A43EA0A03012B49D0022B32D0002B27
:1015E000CCD1B8F1000F02D0002840F0CD800434F7
:1015F000D4F800A0BAF1000FCDD105A9384600F00B
:101600002BFB0028BAD1019B002BB3D00F21384609
:10161000FFF71EFF0E2102463846FFF73DFF384612
:101620006A4A0F21FFF738FF0720A8E70020CAE722
:10163000D4F804900834B5E7090203230591ADF806
:101640001C308AE7236823F0004BB8F1000F45D126
:1016500028B1029A002A5CD0BBF1000F74D0002B95
:1016600000DA04340BF1010B04EB8B04C0E7B8F192
:10167000000F19D1B0B1D4E90023991C4FEAD272FE
:101680003FF47CAF05F158010133049100F09080E4
:10169000201DFFF7C9FD04AB0146284615F024FFC5
:1016A00000285BD10834A3E70D213846D5F82090F7
:1016B000FFF7CEFE8145F5D1AB6A9C42F2D12046C0
:1016C000FFF7ECFC0F2102463846FFF7E5FE3846EF
:1016D0002A460021FFF7E0FE072050E70D2138469B
:1016E000D5F82090FFF7B4FE814501D02368B6E716
:1016F000AB6A9C42FAD104220021C5E90B12A3185F
:10170000C5F828B06B6323688B4259DB0123019332
:10171000A8E705F15803CDF80C8004F1040AB0469F
:1017200091461E460DE00496FFF77EFD04AB014690
:101730000022284615F0D8FE09F101090AF1040A31
:10174000E8B9D9455046EED138460D21FFF780FE65
:10175000049B2862C5E90934062010E781460D2163
:101760003846FFF775FEB9F1020F286225D12B46E6
:10177000049A43F82C2F6B62AC620620FFE64646C3
:101780002368DDF80C806AE72046FFF787FC043405
:101790000246AC632846144615F004FF00283FF4C7
:1017A000EDAE384622460F21FFF776FE0720E6E62B
:1017B00038460D21FFF74CFE2862049B6B62DBE785
:1017C0000BF1010004EB80007AE700BF8F4C0208A8
:1017D0000023A9E60123A7E60223A5E62DE9F043AD
:1017E0000646C3B015461C46042900F2B980DFE85E
:1017F00001F09A53B7290300002C40F0B180102A61
:1018000000F2AE800368D80600F1F38020AF3846BE
:1018100000F092F9B06B0023012404FA03F22A428B
:10182000014604D051F8042B47F823200846013321
:10183000042BF2D1B063384600F074F9002043B0B5
:10184000BDE8F083032C40F08B8094B204EB12438C
:10185000102B4FEA124500F2838003681F0700F146
:10186000D08020AF384600F03BF907EBC501B56BDF
:1018700054B10B46E81A01EBC401E4001A5843F8CE
:10188000042B8B42FAD125443846B56300F006F9A3
:10189000002043B0BDE8F083012C4FEA124895B216
:1018A0005AD0052C5CD108EB0509B9F1200F57D8A7
:1018B000B8F10F0F77D9A946002D40F08880B36B9F
:1018C0006DB320AF4FF0000907EBC807043F03EBEF
:1018D000C50553F8041B47F8041FAB42F9D1B9F111
:1018E000000F0FD06F464146102938BF102107EB7B
:1018F000C101843903EBC90553F8040B41F8040F07
:10190000AB42F9D1012C00F08480B8F10F0FB56320
:1019100045D9B9F1000F02D0684600F0B7F80020B1
:1019200043B0BDE8F083DCB9876B2346012094B255
:1019300006F1040C00FA03F22242394604D051F8B1
:10194000042B4CF823200F460133102BF2D115F451
:101950000050E4D1B76304E008EB0503102B03D972
:10196000022043B0BDE8F083B8F10F0FF8D8336818
:10197000DA0706D5304623F0030340F8483B00F071
:1019800079F820AF384600F075F8B36B002D99D187
:101990001D460435B563384600F068F8BFE720A857
:1019A00000F06CF8B5E7B9F1100F40D9A9F11009B2
:1019B0003368D90708D523F00103304643F002030A
:1019C00040F8483B00F05EF8B9F1000F32D03368C0
:1019D0005A0720D4B8F10F0F25D96F463846C8F101
:1019E000100500F057F8002DB36B7FF77CAF20AFE8
:1019F0006AE723F01003336006F5E87000F09CF806
:101A000004E723F00803036000F5A87000F068F80D
:101A100027E720AFBDE7304623F0040340F8D03B72
:101A200000F038F8D6E720A800F02CF8D5E74FF002
:101A30000009BDE7B8F10F0F3FF641AF20AF3846C0
:101A400000F020F8B36B002D7FF43CAF384600F077
:101A500015F864E700F1340191E838009C46A64689
:101A60004CF8045D90E8FF0FE54600BD90EC210BBB
:101A7000704700BF80EC210B704700BF90EC200B3B
:101A8000704700BF80EC200B704700BFD0EC200BEC
:101A9000704700BFC0EC200B704700BFF0EC0201A4
:101AA000F0EC0211F0EC0221F0EC0231F0EC02411A
:101AB000F0EC0251F0EC0261F0EC0271F0EC02810A
:101AC000F0EC0291F0EC02A1F0EC02B1F0EC02C1FA
:101AD000F0EC02D1F0EC02E1F0EC02F1704700BF53
:101AE000E0EC0201E0EC0211E0EC0221E0EC02315A
:101AF000E0EC0241E0EC0251E0EC0261E0EC02714A
:101B0000E0EC0281E0EC0291E0EC02A1E0EC02B139
:101B1000E0EC02C1E0EC02D1E0EC02E1E0EC02F129
:101B2000704700BFB0FC0181B0FC0191B0FC01A185
:101B3000B0FC01B1704700BFA0FC0181A0FC019185
:101B4000A0FC01A1A0FC01B1704700BFEC4600B5AC
:101B50002DE900502DE9FF1F4FF000032DE90C0087
:101B600001A9FFF7F1FBDDF840E012B0704700BFBC
:101B7000EC4600B52DE900502DE9FF1F4FF00003A2
:101B80002DE90C0001A9FFF719FCDDF840E012B0C7
:101B9000704700BFEC4600B52DE900502DE9FF1F4E
:101BA0004FF000032DE90C0001A9FFF729FCDDF837
:101BB00040E012B0704700BFEC4600B52DE9005080
:101BC0002DE9FF1F4FF000032DE90C0001ABFFF7DB
:101BD000EBFBDDF840E012B0704700BFEC4600B50B
:101BE0002DE900502DE9FF1F4FF000032DE90C00F7
:101BF00001AAFFF75DFCDDF840E012B0704700BFBE
:101C0000027A7AB9437AA3B14268013B10B44372B5
:101C100013680321141D01721A024460026010BC93
:101C2000180E70470368013A02721A020260180E19
:101C30007047B020704700BF00B585B003AA0023ED
:101C4000009219460C22FFF7EBFB039805B05DF8F4
:101C500004FB00BFF0E700BF2DE9F043054685B067
:101C60000E464FF000083046FFF7CAFFB028044682
:101C700000F0B280070620D500F0F003802B4DD095
:101C8000902B36D0A02B60D0B02B74D0C02B00F09E
:101C90008B8000F0F803D02B0BD100F0070201324B
:101CA00042F40022052301212846FFF797FD002872
:101CB000D9D0092005B0BDE8F0830DF10C0900234F
:101CC00019468700CDF800900D222846FFF7A8FBA3
:101CD000FFB2039BCDF80090043760064CBFDF1BBA
:101CE000FF18002319460D2228460397FFF7BCFB77
:101CF000B9E700F00D030D2BDBD003AF002300F09C
:101D00000F02194600972846FFF78AFB0023009729
:101D100019460D222846FFF7A7FBA4E73046FFF738
:101D20006FFF24022043B0F5004FC2D0040100230E
:101D3000A2B219462846FFF751FD0028B9D114F484
:101D4000004F18BF4FF001088DE7C24302F00703B0
:101D50004FF47F621A41010702F47F624FF00003E3
:101D600048BF42F4804219462846FFF737FD002855
:101D70003FF479AF9DE7B12833D0B22800F08B80D3
:101D8000B32839D000F0FC03B42B92D000F0070246
:101D90000132012342F4002219462846FFF71EFDB6
:101DA00000283FF460AF84E7C62842D0C7284CD053
:101DB00000F0F803C02B5BD0C82860D0C9287FF49E
:101DC00078AF3046FFF71CFF020300F00F0002F46B
:101DD00070220130024365E7B8F1000F18D00020EF
:101DE00068E73046FFF70CFF024600283FF461AF7A
:101DF00010F0F003D0D05CE73046FFF701FF01039D
:101E000000F00F0001F47021421C01230A43C3E7D4
:101E100003AC43460E22414600942846FFF700FBE0
:101E20000094284643460F224146FFF71DFB4046DB
:101E300040E73046FFF7E4FE010300F00F0001F435
:101E40007021421C03230A43A6E73046FFF7D8FE61
:101E5000024600283FF42DAF10F0F0037FF429AFC5
:101E600004212846FFF7BAFC00283FF4FCAE20E727
:101E700000F00F020132032342F420228CE73046A7
:101E8000FFF7BEFE00F0F00200F00F031032013346
:101E900043EA023206E700230DF10C090D22194630
:101EA000CDF800902846FFF7BBFA3046FFF7A8FEB2
:101EB00002064FF002070CD5039B00F07F00B840EC
:101EC000034430460393FFF79BFE030607F1070721
:101ED000F2D4039BCDF8009000F07F0403F501726B
:101EE000BC400023144419460D2228460394FFF7F2
:101EF000BBFAB8E610B5C26C84B0536803248DF801
:101F00000C401B0202F108040846D279019301A992
:101F100002948DF80D20FFF79FFE04B010BD00BFA6
:101F200008B5FFF797FE806C08BD00BF08B5FFF746
:101F300091FEC06CC379023300EB830008BD00BF83
:101F4000704700BF012800D070474FF6FF739942D9
:101F5000FAD110B5044C204616F092F9034A044910
:101F6000204615F01EFA10BD0403002000000020DA
:101F70009983010870B506460C4605E015F08AFA0B
:101F8000204615F087FA2C4654B1E1683046FFF739
:101F9000F1FFA568A06904F120038342EED1EFE7C9
:101FA00070BDF8B507460C4605E015F073FA2046FB
:101FB00015F070FA34469CB1E1683846FFF7F1FF3E
:101FC000A66804F11005A86904F13003984201D015
:101FD00015F060FA2B4653F8080B9842E5D1E6E776
:101FE000F8BD70B506460C464CB1E1683046FFF7C7
:101FF000F8FFA568204615F04DFA2C46F4E770BDB1
:1020000038B50446634B0360D0F8840608B115F078
:1020100041FAD4F8740608B115F03CFAD4F8640615
:1020200008B115F037FAD4F8540608B115F032FAB1
:10203000D4F8440608B115F02DFAD4F8340608B1E6
:1020400015F028FAD4F8240608B115F023FAD4F8CC
:10205000140608B115F01EFAD4F8040608B115F0FC
:1020600019FAD4F8F40508B115F014FAD4F8E40517
:1020700008B115F00FFAD4F8D40508B115F00AFA32
:10208000D4F8C40508B115F005FAD4F8B40508B1C0
:1020900015F000FAD4F8A40508B115F0FBF9D4F84E
:1020A000940508B115F0F6F9D4F8840508B115F0D7
:1020B000F1F9D4F8740508B115F0ECF9D4F8640519
:1020C00008B115F0E7F9D4F8540508B115F0E2F9B4
:1020D000D4F8440508B115F0DDF9D4F8340508B199
:1020E00015F0D8F9D4F8240508B115F0D3F9D4F8CF
:1020F000140508B115F0CEF9D4F8040508B115F0AF
:10210000C9F9D4F8F40408B115F0C4F9D4F8E4041A
:1021100008B115F0BFF9D4F8D40408B115F0BAF934
:10212000D4F8C40408B115F0B5F904F1F405D5F8F4
:10213000400108B115F0AEF9D5F8300108B115F03D
:10214000A9F9D5F8200108B115F0A4F9D5F81001C6
:1021500008B115F09FF9E86E05F17403984201D0BB
:1021600015F098F9696D05F14C00FFF73AFF686BBF
:1021700005F13C03984201D015F08CF9696A05F12C
:102180001C00FFF70EFFE968281DFFF7F3FE20464D
:1021900038BD00BFA099030800B5ADF2946D684644
:1021A00000F036FB3DA805F06FFF04E06846FFF73E
:1021B00027FF15F075F96846FFF722FF00200DF2A2
:1021C000946D5DF804FB000038B50446654B036070
:1021D000D0F8840608B115F05DF9D4F8740608B19A
:1021E00015F058F9D4F8640608B115F053F9D4F88D
:1021F000540608B115F04EF9D4F8440608B115F0AC
:1022000049F9D4F8340608B115F044F9D4F8240695
:1022100008B115F03FF9D4F8140608B115F03AF9F1
:10222000D4F8040608B115F035F9D4F8F40508B16E
:1022300015F030F9D4F8E40508B115F02BF9D4F80D
:10224000D40508B115F026F9D4F8C40508B115F085
:1022500021F9D4F8B40508B115F01CF9D4F8A40597
:1022600008B115F017F9D4F8940508B115F012F972
:10227000D4F8840508B115F00DF9D4F8740508B147
:1022800015F008F9D4F8640508B115F003F9D4F88D
:10229000540508B115F0FEF8D4F8440508B115F05E
:1022A000F9F8D4F8340508B115F0F4F8D4F8240599
:1022B00008B115F0EFF8D4F8140508B115F0EAF8F4
:1022C000D4F8040508B115F0E5F8D4F8F40408B121
:1022D00015F0E0F8D4F8E40408B115F0DBF8D4F810
:1022E000D40408B115F0D6F8D4F8C40408B115F038
:1022F000D1F804F1F405D5F8400108B115F0CAF899
:10230000D5F8300108B115F0C5F8D5F8200108B1AD
:1023100015F0C0F8D5F8100108B115F0BBF8E86E5B
:1023200005F17403984201D015F0B4F8696D05F118
:102330004C00FFF756FE686B05F13C03984201D054
:1023400015F0A8F8696A05F11C00FFF72AFEE96894
:10235000281DFFF70FFE4FF4D261204615F09CF8C0
:10236000204638BDA099030808B54FF6FF7101203B
:10237000FFF7E8FD08BD0000012800D070474FF6C8
:10238000FF739942FAD110B5044C204615F078FF3E
:10239000034A0449204615F004F810BD0803002044
:1023A000000000209983010810B50446D0F84001D0
:1023B00008B115F06FF8D4F8300108B115F06AF8DB
:1023C000D4F8200108B115F065F8D4F8100108B16F
:1023D00015F060F8E06E04F17403984201D015F036
:1023E00059F8616D04F14C00FFF7FBFD606B04F1DF
:1023F0003C03984201D015F04DF8616A04F11C00CD
:10240000FFF7CFFDE168201DFFF7B4FD204610BDAA
:102410002DE9F04186B0044616461D4661B1012003
:10242000231D3246294616F04AF863690133636179
:10243000284606B0BDE8F081031D9A421FD05169BD
:1024400002AB286983E803006B46106983E8030048
:1024500006AB03E90300049FDDF8088047450CD371
:1024600002AB1A68039805991AB12FF0B9F903461F
:1024700008B9A8EB0703D80FD2E704ABF1E70120B6
:10248000CEE72DE9F04186B00C4690461F4606E0A7
:1024900004AB17E0731B002B1FDBA046A468F4B14C
:1024A000616902AD206985E803006D4697E8030085
:1024B00085E8030006AB03E90300049D029EB542D4
:1024C000E6D302AB1A6803980599002AE2D02FF0F0
:1024D00087F903460028DED1DCE7E468DFE7404601
:1024E00006B0BDE8F0812DE9F04387B00746884685
:1024F00016468C680D1D012308E004AB1CE0A9EB17
:102500000503DB0F23D0A268254614460CB304F163
:10251000100502AB96E8030083E803006B4695E8DC
:10252000030083E8030006AB03E90300049DDDF824
:1025300008904D45E1D302AB1A6803980599002A2B
:10254000DDD02FF04DF903460028DAD1D7E7E26855
:10255000DAE728462BB1D8F80C30AB4227D015F07B
:10256000ACFF8046416902AB006983E803006B461B
:1025700096E8030083E8030006AB03E90300049E2A
:10258000DDF808904E4515D302AB1A6803980599FB
:102590001AB12FF025F9034608B9A9EB0603002B61
:1025A0000ADA3C607D60384607B0BDE8F0833C60E5
:1025B0007D60F8E704ABE8E7C7F8008000237B60A4
:1025C000F1E72DE9F04786B006460F461C460B1D85
:1025D0009A4250D0154602F1100802AB94E803006D
:1025E00083E803006B4698E8030083E8030006AB2A
:1025F00003E90300DDF81090DDF808A0D1456CD3A5
:1026000002AB1A68039805991AB12FF0E9F803464E
:1026100008B9AAEB0903002B70DAFB68AB425ED065
:10262000284615F04AFF8046416902AB006983E8FD
:1026300003006B4694E8030083E8030006AB03E95C
:102640000300DDF81090DDF808A0D1454AD302ABB5
:102650001A68039805991AB12FF0C2F8034608B911
:10266000AAEB0903002B43DAD8F80C30002B3BD03F
:10267000356075602DE04B6933B30D69696902AB54
:10268000286983E803006B4694E8030083E80300AD
:1026900006AB03E90300DDF81080DDF80890C845BB
:1026A00010D302AB1A68039805991AB12FF098F865
:1026B000034608B9A9EB0803002B05DA00233360B1
:1026C000756006E004ABEDE7224639463046FFF779
:1026D0000AFF304606B0BDE8F08704AB91E73360EF
:1026E0007360F6E704ABB3E73360C6F80480F0E745
:1026F000224639463046FFF7F6FEEAE702AB98E895
:10270000030083E803006B4694E8030083E80300BA
:1027100006AB03E90300DDF81080DDF80890C8453A
:102720003CD302AB1A68039805991AB12FF058F8F8
:10273000034608B9A9EB0803002B40DA3B69AB421A
:102740002ED0284615F093FE804600F1100202AB11
:1027500094E8030083E803006B4692E8030083E8F3
:10276000030006AB03E90300DDF81090DDF808A0D4
:10277000D14519D302AB1A68039805991AB12FF005
:102780002FF8034608B9AAEB0903002B11DAEB680E
:1027900063B1C6F80080C6F804809AE704ABC1E7CD
:1027A00000223260736094E704ABE4E73360756045
:1027B0008FE7224639463046FFF795FE89E73560B8
:1027C0000023736085E7F0B583B005460E461F46CB
:1027D0001C2015F06DFA04463A6800F1100392E8E7
:1027E000030083E803000022A261324629466846BE
:1027F000FFF7E7FE019A32B1234600992846FFF71A
:1028000007FE03B0F0BD204614F044FE0098F8E740
:102810002DE9F04FFDB004460AF084FF04F1F407FF
:1028200020460BF09DFB0146384605F00BFAFA4BAB
:10283000236020460BF0A0FB04F5107501462846E6
:1028400001F050FE04F5187520460BF0A1FB01467F
:10285000284601F047FE04F5207520460BF0A4FB46
:102860000146284601F0DEFC04F5227520460BF0F7
:10287000A7FB0146284601F0D5FC04F52475204647
:102880000BF0AAFB0146284601F0CCFC04F52675A6
:1028900020460BF0ADFB0146284601F0C3FC04F5D1
:1028A000287520460BF0B0FB0146284601F01AFEC1
:1028B00004F5307520460BF0B3FB0146284601F0C5
:1028C00011FE04F5387520460BF0B6FB014628468C
:1028D00001F008FE04F5407520460BF0B9FB0146F7
:1028E000284601F0FFFD04F5487520460BF0BCFBBF
:1028F0000146284601F096FC04F54A7520460BF087
:10290000BFFB0146284601F08DFC04F54C752046BE
:102910000BF0C2FB0146284601F084FC04F54E751D
:1029200020460BF0C5FB0146284601F07BFC04F570
:10293000507520460BF0C8FB0146284601F072FC9A
:1029400004F5527520460BF0CBFB0146284601F0FA
:1029500069FC04F5547520460BF0CEFB0146284671
:1029600001F060FC04F5567520460BF0D1FB0146E2
:10297000284601F057FC04F5587520460BF0D4FBAF
:102980000146284601F0AEFD04F5607520460BF0C7
:10299000D7FB0146284601F0A5FD04F568752046E1
:1029A0000BF0DAFB0146284601F09CFD04F570753A
:1029B00020460BF0DDFB0146284601F093FD04F5AF
:1029C000787520460BF0E0FB0146284601F08AFDB1
:1029D00004F5806520460BF0E3FB0146284601F034
:1029E00081FD04F5846520460BF0E6FB0146284690
:1029F00001F078FD04F5886520460BF0E9FB0146FF
:102A0000284601F06FFD04F58C6520460BF0ECFBC9
:102A10000146284601F066FD04F5906520460BF05E
:102A2000EFFB0146284601F05DFD04F59465204664
:102A30000BF0F2FB0146284601F054FD04F59866C0
:102A40000023C4F8C434C4F8C834C4F8CC34734A7E
:102A5000C4F8C024C4F8D434C4F8D834C4F8DC347E
:102A6000C4F8D024C4F8E434C4F8E834C4F8EC342E
:102A70006B4AC4F8E024C4F8F434C4F8F834C4F859
:102A8000FC34C4F8F024C4F80435C4F80835C4F89C
:102A90000C35C4F80025C4F81435C4F81835C4F84A
:102AA0001C35C4F81025C4F82435C4F82835C4F8FA
:102AB0002C35C4F82025C4F83435C4F83835C4F8AA
:102AC0003C35C4F83025C4F84435C4F84835C4F85A
:102AD0004C35C4F84025C4F85435C4F85835C4F80A
:102AE0005C35C4F85025C4F86435C4F86835C4F8BA
:102AF0006C35C4F86025C4F87435C4F87835C4F86A
:102B00007C35C4F87025C4F88435C4F88835C4F819
:102B10008C35C4F88025C4F89435C4F89835C4F8C9
:102B20009C35C4F89025C4F8A435C4F8A835C4F879
:102B3000AC35C4F8A025C4F8B435C4F8B835C4F829
:102B4000BC35C4F8B025C4F8C435C4F8C835C4F8D9
:102B5000CC35C4F8C025C4F8D435C4F8D835C4F889
:102B6000DC35C4F8D025C4F8E435C4F8E835C4F839
:102B7000EC35C4F8E025C4F8F435C4F8F835C4F8E9
:102B8000FC35C4F8F025C4F80436C4F80836C4F897
:102B90000C36C4F80026C4F81436C4F81836C4F845
:102BA0001C36C4F81026C4F82436C4F82836C4F8F5
:102BB0002C36C4F82026C4F83436C4F83836C4F8A5
:102BC0003C36C4F83026C4F84436C4F84836C4F855
:102BD0004C36C4F84026C4F85436C4F85836C4F805
:102BE0005C36C4F85026C4F86436C4F86836C4F8B5
:102BF0006C360C4AC4F86026C4F87436C4F87836CB
:102C0000C4F87C36084AC4F87026C4F88436C4F880
:102C10008836C4F88C3609E0A09903089C9F030805
:102C2000B09F0308889F0308749F0308AC4BC4F847
:102C3000803604F5A07511230893AA4B099304F577
:102C4000A27A08AB5246A9682846FFF71AFC8046CC
:102C50008146824522D000F110030DF1100C08AA24
:102C600092E803008CE8030002AA93E8030082E8DC
:102C7000030006AB83E803008246DCF800B0584549
:102C800017D363461A68059807991AB12EF0A8FD64
:102C9000034608B9ABEB0A03002B0DDA08AB4393EC
:102CA00042AB009343AB904A49462846FFF78BFD61
:102CB00001E006ABE6E78046C8F8186004F59A68BC
:102CC00010230A93894B0B9305F1040A0AAB524671
:102CD000A9682846FFF7D5FB06468146824522D0E3
:102CE00000F110030DF1100C0AAA92E803008CE821
:102CF000030002AA93E8030082E8030006AB83E81E
:102D000003008246DCF800B0584517D363461A68C2
:102D1000059807991AB12EF063FD034608B9ABEB8D
:102D20000A03002B0DDA0AAB459344AB009345AB85
:102D30006D4A49462846FFF746FD01E006ABE6E747
:102D40000646C6F8188004F59C6811230C93684B5E
:102D50000D9305F1040A0CAB5246A9682846FFF70B
:102D600090FB06468146824522D000F110030DF10A
:102D7000100C0CAA92E803008CE8030002AA93E866
:102D8000030082E8030006AB83E803008246DCF818
:102D900000B0584517D363461A68059807991AB1C9
:102DA0002EF01EFD034608B9ABEB0A03002B0DDA2B
:102DB0000CAB479346AB009347AB4B4A494628467A
:102DC000FFF701FD01E006ABE6E70646C6F818800E
:102DD00004F59E6811230E93464B0F9305F1040AE8
:102DE0000EAB5246A9682846FFF74BFB06468146C4
:102DF000824522D000F110030DF1100C0EAA92E8CA
:102E000003008CE8030002AA93E8030082E80300B1
:102E100006AB83E803008246DCF800B0584517D3C0
:102E200063461A68059807991AB12EF0D9FC034633
:102E300008B9ABEB0A03002B0DDA0EAB499348AB94
:102E4000009349AB284A49462846FFF7BCFC01E0FD
:102E500006ABE6E70646C6F8188004F5A06811231D
:102E60001093254B119305F1040A10AB5246A96843
:102E70002846FFF706FB06468146824522D000F130
:102E800010030DF1100C10AA92E803008CE8030067
:102E900002AA93E8030082E8030006AB83E803007C
:102EA0008246DCF800B0584517D363461A68059887
:102EB00007991AB12EF094FC034608B9ABEB0A034C
:102EC000002B1CDA10AB4B934AAB00934BAB064A7A
:102ED00049462846FFF777FC10E006ABE6E700BF5F
:102EE000609F0308209A0308389C0308349A03085B
:102EF000489A03085C9A0308709A03080646C6F8C5
:102F0000188004F5A26811231293A94B139305F1BD
:102F1000040A12AB5246A9682846FFF7B2FA0646E1
:102F20008146824522D000F110030DF1100C12AA47
:102F300092E803008CE8030002AA93E8030082E809
:102F4000030006AB83E803008246DCF800B0584576
:102F500017D363461A68059807991AB12EF040FCFA
:102F6000034608B9ABEB0A03002B0DDA12AB4D9305
:102F70004CAB00934DAB8F4A49462846FFF723FCE4
:102F800001E006ABE6E70646C6F8188004F5A4683B
:102F90000C231493884B159305F1040A14AB524685
:102FA000A9682846FFF76DFA06468146824522D079
:102FB00000F110030DF1100C14AA92E803008CE844
:102FC000030002AA93E8030082E8030006AB83E84B
:102FD00003008246DCF800B0584517D363461A68F0
:102FE000059807991AB12EF0FBFB034608B9ABEB25
:102FF0000A03002B0DDA14AB4F934EAB00934FAB8B
:103000006C4A49462846FFF7DEFB01E006ABE6E7DF
:103010000646C6F8188004F5A6680C231693674B7D
:10302000179305F1040A16AB5246A9682846FFF724
:1030300028FA06468146824522D000F110030DF1A0
:10304000100C16AA92E803008CE8030002AA93E889
:10305000030082E8030006AB83E803008246DCF845
:1030600000B0584517D363461A68059807991AB1F6
:103070002EF0B6FB034608B9ABEB0A03002B0DDAC2
:1030800016AB519350AB009351AB4A4A4946284680
:10309000FFF799FB01E006ABE6E70646C6F81880A5
:1030A00004F5A8680C231893454B199305F1040AFD
:1030B00018AB5246A9682846FFF7E3F90646814651
:1030C000824522D000F110030DF1100C18AA92E8ED
:1030D00003008CE8030002AA93E8030082E80300DF
:1030E00006AB83E803008246DCF800B0584517D3EE
:1030F00063461A68059807991AB12EF071FB0346CA
:1031000008B9ABEB0A03002B0DDA18AB539352ABA3
:10311000009353AB274A49462846FFF754FB01E08A
:1031200006ABE6E70646C6F8188004F5AA680C2345
:103130001A93244B1B9305F1040A1AAB5246A96853
:103140002846FFF79EF906468146824522D000F1C7
:1031500010030DF1100C1AAA92E803008CE803008A
:1031600002AA93E8030082E8030006AB83E80300A9
:103170008246DCF800B0584517D363461A680598B4
:1031800007991AB12EF02CFB034608B9ABEB0A03E2
:10319000002B1ADA1AAB559354AB009355AB054A82
:1031A00049462846FFF70FFB0EE006ABE6E700BFF7
:1031B000849A0308389C0308989A0308A89A03087D
:1031C000B89A0308C89A03080646C6F8188004F59A
:1031D000AC6811231C93A94B1D9305F1040A1CAB89
:1031E0005246A9682846FFF74CF9064681468245B3
:1031F00022D000F110030DF1100C1CAA92E803007C
:103200008CE8030002AA93E8030082E8030006ABFF
:1032100083E803008246DCF800B0584517D36346C4
:103220001A68059807991AB12EF0DAFA034608B918
:10323000ABEB0A03002B0DDA1CAB579356AB009394
:1032400057AB8F4A49462846FFF7BDFA01E006AB67
:10325000E6E70646C6F8188004F5AE6811231E930B
:10326000884B1F9305F1040A1EAB5246A9682846F5
:10327000FFF707F906468146824522D000F1100388
:103280000DF1100C1EAA92E803008CE8030002AABC
:1032900093E8030082E8030006AB83E8030082465C
:1032A000DCF800B0584517D363461A6805980799AB
:1032B0001AB12EF095FA034608B9ABEB0A03002BBE
:1032C0000DDA1EAB599358AB009359AB6C4A494683
:1032D0002846FFF778FA01E006ABE6E70646C6F8AF
:1032E000188004F5B06811232093674B219305F1F2
:1032F000040A20AB5246A9682846FFF7C2F80646E2
:103300008146824522D000F110030DF1100C20AA55
:1033100092E803008CE8030002AA93E8030082E825
:10332000030006AB83E803008246DCF800B0584592
:1033300017D363461A68059807991AB12EF050FA08
:10334000034608B9ABEB0A03002B0DDA20AB5B9305
:103350005AAB00935BAB4A4A49462846FFF733FA1B
:1033600001E006ABE6E70646C6F8188004F5B26849
:1033700011232293454B239305F1040A22AB5246B5
:10338000A9682846FFF77DF806468146824522D087
:1033900000F110030DF1100C22AA92E803008CE852
:1033A000030002AA93E8030082E8030006AB83E867
:1033B00003008246DCF800B0584517D363461A680C
:1033C000059807991AB12EF00BFA034608B9ABEB32
:1033D0000A03002B0DDA22AB5D935CAB00935DAB6F
:1033E000274A49462846FFF7EEF901E006ABE6E733
:1033F0000646C6F8188004F5B46811232493244BBC
:10340000259305F1040A24AB5246A9682846FFF724
:1034100038F806468146824522D000F110030DF1AE
:10342000100C24AA92E803008CE8030002AA93E897
:10343000030082E8030006AB83E803008246DCF861
:1034400000B0584517D363461A68059807991AB112
:103450002EF0C6F9034608B9ABEB0A03002B1ADAC3
:1034600024AB5F935EAB00935FAB054A49462846A9
:10347000FFF7A9F90EE006ABE6E700BFD89A03080C
:10348000389C0308EC9A0308009B0308149B03086C
:10349000289B03080646C6F8188004F5B668112371
:1034A0002693A94B279305F1040A26AB5246A96837
:1034B0002846FEF7E6FF06468146824522D000F107
:1034C00010030DF1100C26AA92E803008CE803000B
:1034D00002AA93E8030082E8030006AB83E8030036
:1034E0008246DCF800B0584517D363461A68059841
:1034F00007991AB12EF074F9034608B9ABEB0A0329
:10350000002B0DDA26AB619360AB009361AB8F4A61
:1035100049462846FFF757F901E006ABE6E70646BD
:10352000C6F8188004F5B86811232893884B2993AE
:1035300005F1040A28AB5246A9682846FEF7A1FF08
:1035400006468146824522D000F110030DF1100C91
:1035500028AA92E803008CE8030002AA93E803007B
:1035600082E8030006AB83E803008246DCF800B083
:10357000584517D363461A68059807991AB12EF073
:103580002FF9034608B9ABEB0A03002B0DDA28AB81
:10359000639362AB009363AB6C4A49462846FFF7DE
:1035A00012F901E006ABE6E70646C6F8188004F516
:1035B000BA6811232A93674B2B9305F1040A2AABAF
:1035C0005246A9682846FEF75CFF064681468245BA
:1035D00022D000F110030DF1100C2AAA92E803008A
:1035E0008CE8030002AA93E8030082E8030006AB1C
:1035F00083E803008246DCF800B0584517D36346E1
:103600001A68059807991AB12EF0EAF8034608B926
:10361000ABEB0A03002B0DDA2AAB659364AB009386
:1036200065AB4A4A49462846FFF7CDF801E006ABAC
:10363000E6E70646C6F8188004F5BC680C232C9310
:10364000454B2D9305F1040A2CAB5246A968284638
:10365000FEF717FF06468146824522D000F110038F
:103660000DF1100C2CAA92E803008CE8030002AACA
:1036700093E8030082E8030006AB83E80300824678
:10368000DCF800B0584517D363461A6805980799C7
:103690001AB12EF0A5F8034608B9ABEB0A03002BCC
:1036A0000DDA2CAB679366AB009367AB274A4946AC
:1036B0002846FFF788F801E006ABE6E70646C6F8BD
:1036C000188004F5BE680C232E93244B2F9305F12C
:1036D000040A2EAB5246A9682846FEF7D2FE0646DB
:1036E0008146824522D000F110030DF1100C2EAA64
:1036F00092E803008CE8030002AA93E8030082E842
:10370000030006AB83E803008246DCF800B05845AE
:1037100017D363461A68059807991AB12EF060F816
:10372000034608B9ABEB0A03002B1ADA2EAB6993F8
:1037300068AB009369AB054A49462846FFF743F852
:103740000EE006ABE6E700BF3C9B0308389C03088D
:10375000509B0308649B0308789B0308889B03081D
:103760000646C6F8188004F5C0680C233093A94BB0
:10377000319305F1040A30AB5246A9682846FEF79A
:1037800080FE06468146824522D000F110030DF1ED
:10379000100C30AA92E803008CE8030002AA93E818
:1037A000030082E8030006AB83E803008246DCF8EE
:1037B00000B0584517D363461A68059807991AB19F
:1037C0002EF00EF8034608B9ABEB0A03002B0DDA16
:1037D00030AB6B936AAB00936BAB8F4A494628467C
:1037E000FEF7F1FF01E006ABE6E70646C6F81880F3
:1037F00004F5C2680C233293884B339305F1040A15
:1038000032AB5246A9682846FEF73BFE0646814683
:10381000824522D000F110030DF1100C32AA92E87B
:1038200003008CE8030002AA93E8030082E8030087
:1038300006AB83E803008246DCF800B0584517D396
:1038400063461A68059807991AB12DF0C9FF034617
:1038500008B9ABEB0A03002B0DDA32AB6D936CABFE
:1038600000936DAB6C4A49462846FEF7ACFF01E079
:1038700006ABE6E70646C6F8188004F5C4680C23D4
:103880003493674B359305F1040A34AB5246A9686B
:103890002846FEF7F6FD06468146824522D000F115
:1038A00010030DF1100C34AA92E803008CE8030019
:1038B00002AA93E8030082E8030006AB83E8030052
:1038C0008246DCF800B0584517D363461A6805985D
:1038D00007991AB12DF084FF034608B9ABEB0A0330
:1038E000002B0DDA34AB6F936EAB00936FAB4A4A8B
:1038F00049462846FEF767FF01E006ABE6E70646C5
:10390000C6F8188004F5C6680C233693454B3793E8
:1039100005F1040A36AB5246A9682846FEF7B1FD08
:1039200006468146824522D000F110030DF1100CAD
:1039300036AA92E803008CE8030002AA93E8030089
:1039400082E8030006AB83E803008246DCF800B09F
:10395000584517D363461A68059807991AB12DF090
:103960003FFF034608B9ABEB0A03002B0DDA36AB79
:10397000719370AB009371AB274A49462846FEF716
:1039800022FF01E006ABE6E70646C6F8188004F51C
:10399000C8680C233893244B399305F1040A38ABDB
:1039A0005246A9682846FEF76CFD064681468245C8
:1039B00022D000F110030DF1100C38AA92E8030098
:1039C0008CE8030002AA93E8030082E8030006AB38
:1039D00083E803008246DCF800B0584517D36346FD
:1039E0001A68059807991AB12DF0FAFE034608B92E
:1039F000ABEB0A03002B1ADA38AB739372AB00936C
:103A000073AB054A49462846FEF7DDFE0EE006ABDD
:103A1000E6E700BF989B0308389C0308A89B0308AF
:103A2000B89B0308C89B0308D89B03080646C6F842
:103A3000188004F5CA680C233A93854B3B9305F133
:103A4000040A3AAB5246A9682846FEF71AFD064614
:103A50008146824522D000F110030DF1100C3AAAE4
:103A600092E803008CE8030002AA93E8030082E8CE
:103A7000030006AB83E803008246DCF800B058453B
:103A800017D363461A68059807991AB12DF0A8FE56
:103A9000034608B9ABEB0A03002B0DDA3AAB75937A
:103AA00074AB009375AB6B4A49462846FEF78BFE14
:103AB00001E006ABE6E70646C6F8188004F5CC68D8
:103AC00011233C93644B3D9305F1040A3CAB5246F1
:103AD000A9682846FEF7D5FC06468146824522D0D5
:103AE00000F110030DF1100C3CAA92E803008CE8E1
:103AF000030002AA93E8030082E8030006AB83E810
:103B000003008246DCF800B0584517D363461A68B4
:103B1000059807991AB12DF063FE034608B9ABEB7F
:103B20000A03002B0DDA3CAB779376AB009377ABAF
:103B3000484A49462846FEF746FE01E006ABE6E75E
:103B40000646C6F8188004F5CE6814233E93434B0E
:103B50003F9305F1040A3EAB5246A9682846FEF79A
:103B600090FC06468146824521D000F110030DF1FC
:103B7000100C3F993E988CE8030002AA93E80300DA
:103B800082E8030006AB83E803008246DCF800B05D
:103B9000584517D363461A68059807991AB12DF04E
:103BA0001FFE034608B9ABEB0A03002B0DDA3EAB50
:103BB000799378AB009379AB264A49462846FEF7BD
:103BC00002FE01E006ABE6E70646C6F8188004F5FB
:103BD000D06811234093224B419305F1040A40AB76
:103BE0005246A9682846FEF74CFC064681468245A7
:103BF00021D000F110030DF1100C419940988CE890
:103C0000030002AA93E8030082E8030006AB83E8FE
:103C100003008246DCF800B0584517D363461A68A3
:103C2000059807991AB12DF0DBFD034608B9ABEBF7
:103C30000A03002B17DA40AB7B937AAB00937BAB84
:103C4000044A49462846FEF7BEFD0BE006ABE6E710
:103C5000E89B0308389C0308F89B03080C9C0308A6
:103C6000249C03080646C6F8188004F5127104F275
:103C7000C44000F015FE04F51A7104F2D44000F0BF
:103C80000FFE04F5207104F2E44000F0FAFD04F5A3
:103C9000227104F2F44000F0F4FD04F5247104F202
:103CA000045000F0EEFD04F5267104F2145000F00B
:103CB000E8FD04F5297104F2245000F0E2FD04F55A
:103CC000317104F2345000F0DCFD04F5397104F276
:103CD000445000F0D6FD04F5417104F2545000F058
:103CE000D0FD04F5487104F2645000F0CAFD04F5FB
:103CF0004A7104F2745000F0C4FD04F54C7104F2F2
:103D0000845000F0BEFD04F54E7104F2945000F0B2
:103D1000B8FD04F5507104F2A45000F0B2FD04F5B2
:103D2000527104F2B45000F0ACFD04F5547104F289
:103D3000C45000F0A6FD04F5567104F2D45000F012
:103D4000A0FD04F5597104F2E45000F09AFD04F569
:103D5000617104F2F45000F094FD04F5697104F20D
:103D6000046000F08EFD04F5717104F2146000F03F
:103D700088FD04F5797104F2246000F082FD04F2FC
:103D8000044104F2346000F07CFD04F2244104F2AA
:103D9000446000F076FD04F2444104F2546000F007
:103DA00070FD04F58E6104F2646000F088FD04F299
:103DB000944104F2746000F091FD04F5976104F2FF
:103DC000846000F09AFD96E0D4F8840608B113F000
:103DD00061FBD4F8740608B113F05CFBD4F86406F8
:103DE00008B113F057FBD4F8540608B113F052FB96
:103DF000D4F8440608B113F04DFBD4F8340608B1EA
:103E000013F048FBD4F8240608B113F043FBD4F8B0
:103E1000140608B113F03EFBD4F8040608B113F001
:103E200039FBD4F8F40508B113F034FBD4F8E405F9
:103E300008B113F02FFBD4F8D40508B113F02AFB16
:103E4000D4F8C40508B113F025FBD4F8B40508B1C3
:103E500013F020FBD4F8A40508B113F01BFBD4F831
:103E6000940508B113F016FBD4F8840508B113F0DB
:103E700011FBD4F8740508B113F00CFBD4F86405F9
:103E800008B113F007FBD4F8540508B113F002FB96
:103E9000D4F8440508B113F0FDFAD4F8340508B19C
:103EA00013F0F8FAD4F8240508B113F0F3FAD4F8B3
:103EB000140508B113F0EEFAD4F8040508B113F0B4
:103EC000E9FAD4F8F40408B113F0E4FAD4F8E404FD
:103ED00008B113F0DFFAD4F8D40408B113F0DAFA19
:103EE000D4F8C40408B113F0D5FA3846FEF75CFAEA
:103EF00013F0D6FAF9E720467DB0BDE8F08F00BF99
:103F000008B54FF6FF710120FEF736FA08BD000034
:103F1000012800D070474FF6FF739942FAD110B5CF
:103F2000044C204614F0ACF9034A0449204613F02F
:103F300038FA10BD0C03002000000020998301080E
:103F400082B00A4B1A6E42F001021A661A6E02F033
:103F500001020092009A9A6D42F080529A659B6D20
:103F600003F080530193019B02B0704700100240A0
:103F700030B58BB0002305930693079308930993FC
:103F80000368314A934204D0304A934231D00BB097
:103F900030BD04462E4B1A6E42F480421A661A6EE9
:103FA00002F480420192019ADA6C42F00202DA6471
:103FB000DB6C03F002030293029BC02305930223F0
:103FC000069300250795032308930723099305A962
:103FD00020480BF0CFFD2268136843F020031360E4
:103FE0002A46294625200BF08EFD25200BF0A7FD43
:103FF000CDE7174B9A6D42F400329A659A6D02F440
:1040000000320392039ADA6C42F00102DA64DB6C4C
:1040100003F001030493049B0C23059302230693EE
:1040200000240794032308930723099305A94FF05D
:1040300090400BF09FFD2246214626200BF063FDA9
:1040400026200BF07CFDA2E7003801400044004030
:10405000001002400004004810B588B0002303930C
:1040600004930593069307930268194B9A4201D073
:1040700008B010BD03F5EA339A6D42F400429A6528
:104080009A6D02F400420192019ADA6C42F0400209
:10409000DA64DB6C03F040030293029B0CF002FD38
:1040A0004FF4F05303930223049300240594032355
:1040B00006930623079303A906480BF05BFD2246EF
:1040C000214633200BF01FFD33200BF038FDCFE7E6
:1040D000003C00400018004810B588B0002303934E
:1040E000049305930693079302681B4B9A4201D0F1
:1040F00008B010BD194CE36C43F00403E364E36CB7
:1041000003F004030193019B0323039312220492FF
:104110000122059206930423079303A910480BF08C
:1041200029FDA36D43F40003A365A36D03F400030D
:104130000293029B0022114648200BF0E4FC482029
:104140000BF0FDFC0022114649200BF0DCFC49205D
:104150000BF0F5FCCCE700BF005C00400010024013
:104160000008004808B54FF6FF710120FFF7D0FEA8
:1041700008BD0000034B43F8301003EBC0035A6046
:10418000704700BF100300207047FEE7FEE7FEE720
:10419000FEE770477047704708B5034B1B6813B1C3
:1041A000014A5068984708BD1003002008B5034B2A
:1041B0009B6813B1014AD068984708BD10030020DE
:1041C0007047000080B483B000AF7860044A7B6819
:1041D0001A607B6818460C37BD465DF8047B704753
:1041E000609D030880B483B000AF7860044A7B68A8
:1041F0001A607B6818460C37BD465DF8047B704733
:10420000609D030880B582B000AF78607868FFF7E2
:10421000E9FF0421786813F03FF97B6818460837F6
:10422000BD4680BD80B582B000AF786039607B68E4
:104230001846FFF7C7FF054A7B681A607B683A6833
:104240005A607B6818460837BD4680BDE89C030865
:1042500080B584B000AFF860B9607A603B60FB68FD
:10426000DB691B6808331B68FA68D0693A687968AB
:10427000984700BF1037BD4680BD80B584B000AF01
:10428000F860B9607A603B60FB685B681B68083364
:104290001B68FA6850683A687968984700BF103719
:1042A000BD4680BD80B483B000AF7860044A7B68AF
:1042B0001A607B6818460C37BD465DF8047B704772
:1042C000749D030880B483B000AF7860044A7B68B3
:1042D0001A607B6818460C37BD465DF8047B704752
:1042E000749D030880B582B000AF78607868FFF7EE
:1042F000E9FF0421786813F0CFF87B681846083787
:10430000BD4680BD80B483B000AF7860044A7B684E
:104310001A607B6818460C37BD465DF8047B704711
:10432000389D030880B483B000AF7860044A7B688E
:104330001A607B6818460C37BD465DF8047B7047F1
:10434000389D030880B582B000AF78607868FFF7C9
:10435000E9FF0421786813F09FF87B681846083756
:10436000BD4680BD80B483B000AF7860044A7B68EE
:104370001A607B6818460C37BD465DF8047B7047B1
:104380004C9D030880B483B000AF7860044A7B681A
:104390001A607B6818460C37BD465DF8047B704791
:1043A0004C9D030880B582B000AF78607868FFF755
:1043B000E9FF0421786813F06FF87B681846083726
:1043C000BD4680BD80B483B000AF7860044A7B688E
:1043D0001A607B6818460C37BD465DF8047B704751
:1043E000249D030880B483B000AF7860044A7B68E2
:1043F0001A607B6818460C37BD465DF8047B704731
:10440000249D030880B582B000AF78607868FFF71C
:10441000E9FF0421786813F03FF87B6818460837F5
:10442000BD4680BD80B483B000AF7860044A7B682D
:104430001A607B6818460C37BD465DF8047B7047F0
:10444000109D030880B483B000AF7860044A7B6895
:104450001A607B6818460C37BD465DF8047B7047D0
:10446000109D030880B582B000AF78607868FFF7D0
:10447000E9FF0421786813F00FF87B6818460837C5
:10448000BD4680BD80B483B000AF7860044A7B68CD
:104490001A607B6818460C37BD465DF8047B704790
:1044A000FC9C030880B483B000AF7860044A7B684A
:1044B0001A607B6818460C37BD465DF8047B704770
:1044C000FC9C030880B582B000AF78607868FFF785
:1044D000E9FF0421786812F0DFFF7B68184608378F
:1044E000BD4680BD80B582B000AF786039607B6822
:1044F0001846FFF7D7FE7B6804331846FFF762FEC5
:104500007B6808331846FFF7FDFE7B680C331846BE
:10451000FFF728FF7B6810331846FFF753FF7B68CF
:1045200014331846FFF77EFF7B6818331846FFF7F1
:10453000A9FF0E4A7B681A600D4A7B685A600D4AD3
:104540007B689A600C4A7B68DA600C4A7B681A6167
:104550000B4A7B685A610B4A7B689A617B683A68B0
:10456000DA617B6818460837BD4680BD449C030865
:10457000709C0308849C0308989C0308AC9C030867
:10458000C09C0308D49C030880B584B000AFF860D9
:10459000B9607A603B60FB68DB691B6808331B68A5
:1045A000FA68D0693A687968984700BF1037BD4605
:1045B00080BDA0F10400FFF7E7BF80B584B000AF75
:1045C000F860B9607A603B60FB68DB691B680833A0
:1045D0001B68FA68D0693A687968984700BF103755
:1045E000BD4680BDA0F10800FFF7E7BF80B584B0ED
:1045F00000AFF860B9607A603B60FB68DB691B68FC
:1046000008331B68FA68D0693A687968984700BF30
:104610001037BD4680BDA0F10C00FFF7E7BF80B5A5
:1046200084B000AFF860B9607A603B60FB68DB691A
:104630001B6808331B68FA68D0693A68796898473C
:1046400000BF1037BD4680BDA0F11000FFF7E7BFE7
:1046500080B584B000AFF860B9607A603B60FB68F9
:10466000DB691B6808331B68FA68D0693A687968A7
:10467000984700BF1037BD4680BDA0F11400FFF77A
:10468000E7BF80B584B000AFF860B9607A603B6086
:10469000FB68DB691B6808331B68FA68D0693A68F5
:1046A0007968984700BF1037BD4680BDA0F118005B
:1046B000FFF7E7BF80B582B000AF78601D4A7B6826
:1046C0001A601D4A7B685A601C4A7B689A601C4AC3
:1046D0007B68DA601B4A7B681A611B4A7B685A61F7
:1046E0001A4A7B689A617B6818331846FFF7DAFE2E
:1046F0007B6814331846FFF7A5FE7B681033184615
:10470000FFF770FE7B680C331846FFF73BFE7B68B3
:1047100008331846FFF706FE7B6804331846FFF798
:1047200061FD7B681846FFF7CDFD7B6818460837AA
:10473000BD4680BD449C0308709C0308849C03080C
:10474000989C0308AC9C0308C09C0308D49C0308F5
:10475000A0F10400AEE7A0F10800ABE7A0F10C0067
:10476000A8E7A0F11000A5E7A0F11400A2E7A0F1CE
:1047700018009FE780B582B000AF78607868FFF7D7
:1047800099FF2021786812F087FE7B681846083769
:10479000BD4680BDA0F10400ECE7A0F10800E9E708
:1047A000A0F10C00E6E7A0F11000E3E7A0F114008F
:1047B000E0E7A0F11800DDE780B582B000AF7860D7
:1047C000054A7B681A607B681846FFF70BFD7B681B
:1047D00018460837BD4680BDE89C030880B582B006
:1047E00000AF78607868FFF7E7FF0821786812F07B
:1047F00053FE7B6818460837BD4680BD80B582B041
:1048000000AF786039607B68012B0CD13B684FF6B4
:10481000FF72934207D1064813F032FD054A06495C
:10482000034812F0BEFD00BF0837BD4680BD00BF83
:1048300020030020000000209983010880B500AF0C
:104840004FF6FF710120FFF7D9FF80BD80B483B020
:1048500000AF786039603B6818460C37BD465DF89C
:10486000047B704780B582B000AF786039607B68A8
:104870003A461146184600F0A9FB00BF0837BD466E
:1048800080BD80B582B000AF786039607B683A4601
:104890001146184600F0BFFB00BF0837BD4680BD7B
:1048A00080B582B000AF786039607B683A461146C7
:1048B000184600F0D5FB00BF0837BD4680BD80B567
:1048C00082B000AF786039607B683A46114618467E
:1048D00000F0EBFB00BF0837BD4680BD80B582B05D
:1048E00000AF786039607B683A461146184600F0A0
:1048F00001FC00BF0837BD4680BD80B582B000AF67
:10490000786039607B683A461146184600F017FC1B
:1049100000BF0837BD4680BD90B589B000AFF860D4
:10492000B9607A603B60FB680433FB61F86900F0B2
:104930004FF903467B61F86900F05AF903463B6181
:1049400007F1100207F114031146184600F061F94F
:104950000346002B16D007F11403184600F081F926
:10496000B861BB691B681B6808331C68BB691868A1
:104970003B687A68B968A04707F11403184600F04D
:1049800060F9DDE700BF2437BD4690BD90B589B022
:1049900000AFF860B9607A603B60FB680433FB618C
:1049A000F86900F06AF903467B61F86900F075F96F
:1049B00003463B6107F1100207F114031146184644
:1049C00000F07CF90346002B16D007F114031846BB
:1049D00000F09CF9B861BB691B681B6808331C6850
:1049E000BB6918683B687A68B968A04707F1140387
:1049F000184600F07BF9DDE700BF2437BD4690BDC7
:104A000090B589B000AFF860B9607A603B60FB6830
:104A10000433FB61F86900F085F903467B61F869AE
:104A200000F090F903463B6107F1100207F114030F
:104A30001146184600F097F90346002B16D007F1EF
:104A40001403184600F0B7F9B861BB691B681B680E
:104A500008331C68BB6918683B687A68B968A04766
:104A600007F11403184600F096F9DDE700BF24377C
:104A7000BD4690BD90B589B000AFF860B9607A606E
:104A80003B60FB680433FB61F86900F0A0F9034662
:104A90007B61F86900F0ABF903463B6107F1100256
:104AA00007F114031146184600F0B2F90346002B33
:104AB00016D007F11403184600F0D2F9B861BB69AB
:104AC0001B681B6808331C68BB6918683B687A68F8
:104AD000B968A04707F11403184600F0B1F9DDE703
:104AE00000BF2437BD4690BD90B589B000AFF860D7
:104AF000B9607A603B60FB680433FB61F86900F0E1
:104B0000BBF903467B61F86900F0C6F903463B61D7
:104B100007F1100207F114031146184600F0CDF911
:104B20000346002B16D007F11403184600F0EDF9E8
:104B3000B861BB691B681B6808331C68BB691868CF
:104B40003B687A68B968A04707F11403184600F07B
:104B5000CCF9DDE700BF2437BD4690BD90B589B0E4
:104B600000AFF860B9607A603B60FB680433FB61BA
:104B7000F86900F0D6F903467B61F86900F0E1F9C5
:104B800003463B6107F1100207F114031146184672
:104B900000F0E8F90346002B16D007F1140318467D
:104BA00000F008FAB861BB691B681B6808331C6811
:104BB000BB6918683B687A68B968A04707F11403B5
:104BC000184600F0E7F9DDE700BF2437BD4690BD89
:104BD00080B584B000AF78607A6807F10C031146A5
:104BE000184600F0D1FAFB6818461037BD4680BD64
:104BF00080B584B000AF78607B681A1D07F10C03A4
:104C00001146184600F0C0FAFB6818461037BD463A
:104C100080BD90B583B000AF78603960786800F0EF
:104C2000C3FA03461C68386800F0BEFA03461B68E6
:104C30009C4214BF01230023DBB218460C37BD464B
:104C400090BD80B483B000AF78607B681B681A1D8C
:104C50007B681A607B6818460C37BD465DF8047B9C
:104C6000704780B483B000AF78607B681B681846DB
:104C70000C37BD465DF8047B704780B584B000AF4B
:104C800078607A6807F10C031146184600F097FA2D
:104C9000FB6818461037BD4680BD80B584B000AFB4
:104CA00078607B681A1D07F10C031146184600F066
:104CB00086FAFB6818461037BD4680BD90B583B0B4
:104CC00000AF78603960786800F089FA03461C68A4
:104CD000386800F084FA03461B689C4214BF012325
:104CE0000023DBB218460C37BD4690BD80B483B0BC
:104CF00000AF78607B681B681A1D7B681A607B6850
:104D000018460C37BD465DF8047B704780B483B00D
:104D100000AF78607B681B6818460C37BD465DF8AD
:104D2000047B704780B584B000AF78607A6807F183
:104D30000C031146184600F05DFAFB681846103760
:104D4000BD4680BD80B584B000AF78607B681A1D19
:104D500007F10C031146184600F04CFAFB681846A0
:104D60001037BD4680BD90B583B000AF7860396024
:104D7000786800F04FFA03461C68386800F04AFA79
:104D800003461B689C4214BF01230023DBB2184674
:104D90000C37BD4690BD80B483B000AF78607B68AF
:104DA0001B681A1D7B681A607B6818460C37BD4665
:104DB0005DF8047B704780B483B000AF78607B6897
:104DC0001B6818460C37BD465DF8047B704780B5FC
:104DD00084B000AF78607A6807F10C03114618467A
:104DE00000F023FAFB6818461037BD4680BD80B539
:104DF00084B000AF78607B681A1D07F10C03114680
:104E0000184600F012FAFB6818461037BD4680BD00
:104E100090B583B000AF78603960786800F015FA1B
:104E200003461C68386800F010FA03461B689C4271
:104E300014BF01230023DBB218460C37BD4690BDDA
:104E400080B483B000AF78607B681B681A1D7B68F4
:104E50001A607B6818460C37BD465DF8047B7047C6
:104E600080B483B000AF78607B681B6818460C374D
:104E7000BD465DF8047B704780B584B000AF7860B4
:104E80007A6807F10C031146184600F0E9F9FB684F
:104E900018461037BD4680BD80B584B000AF78603D
:104EA0007B681A1D07F10C031146184600F0D8F96B
:104EB000FB6818461037BD4680BD90B583B000AF83
:104EC00078603960786800F0DBF903461C68386860
:104ED00000F0D6F903461B689C4214BF012300234F
:104EE000DBB218460C37BD4690BD80B483B000AF2E
:104EF00078607B681B681A1D7B681A607B6818469F
:104F00000C37BD465DF8047B704780B483B000AFBA
:104F100078607B681B6818460C37BD465DF8047BDB
:104F2000704780B584B000AF78607A6807F10C03F1
:104F30001146184600F0AFF9FB6818461037BD4619
:104F400080BD80B584B000AF78607B681A1D07F122
:104F50000C031146184600F09EF9FB6818461037FE
:104F6000BD4680BD90B583B000AF78603960786889
:104F700000F0A1F903461C68386800F09CF903466C
:104F80001B689C4214BF01230023DBB218460C3778
:104F9000BD4690BD80B483B000AF78607B681B686D
:104FA0001A1D7B681A607B6818460C37BD465DF891
:104FB000047B704780B483B000AF78607B681B6867
:104FC00018460C37BD465DF8047B704780B582B04B
:104FD00000AF786039607B685A687B689B689A424A
:104FE0000CD078687B685B683A68194600F06EF907
:104FF0007B685B681A1D7B685A6008E07868FFF779
:10500000F7FD03463A681946786800F073F900BF67
:105010000837BD4680BD80B582B000AF786039608A
:105020007B685A687B689B689A420CD078687B687A
:105030005B683A68194600F0DBF97B685B681A1D0B
:105040007B685A6008E07868FFF727FE03463A68F5
:105050001946786800F0E0F900BF0837BD4680BD0A
:1050600080B582B000AF786039607B685A687B6831
:105070009B689A420CD078687B685B683A681946EE
:1050800000F048FA7B685B681A1D7B685A6008E08C
:105090007868FFF757FE03463A681946786800F0CB
:1050A0004DFA00BF0837BD4680BD80B582B000AF65
:1050B000786039607B685A687B689B689A420CD03C
:1050C00078687B685B683A68194600F0B5FA7B68D7
:1050D0005B681A1D7B685A6008E07868FFF787FEF6
:1050E00003463A681946786800F0BAFA00BF0837F4
:1050F000BD4680BD80B582B000AF786039607B6806
:105100005A687B689B689A420CD078687B685B68B9
:105110003A68194600F022FB7B685B681A1D7B68C1
:105120005A6008E07868FFF7B7FE03463A68194608
:10513000786800F027FB00BF0837BD4680BD80B50A
:1051400082B000AF786039607B685A687B689B6882
:105150009A420CD078687B685B683A68194600F020
:105160008FFB7B685B681A1D7B685A6008E0786873
:10517000FFF7E7FE03463A681946786800F094FBAB
:1051800000BF0837BD4680BD80B483B000AF7860F3
:1051900039603B681A687B681A607B6818460C3770
:1051A000BD465DF8047B704780B483B000AF786083
:1051B0007B6818460C37BD465DF8047B704780B4A9
:1051C00083B000AF786039603B681A687B681A600A
:1051D0007B6818460C37BD465DF8047B704780B489
:1051E00083B000AF78607B6818460C37BD465DF829
:1051F000047B704780B483B000AF786039603B684F
:105200001A687B681A607B6818460C37BD465DF8E3
:10521000047B704780B483B000AF78607B68184629
:105220000C37BD465DF8047B704780B483B000AF97
:10523000786039603B681A687B681A607B6818463A
:105240000C37BD465DF8047B704780B483B000AF77
:1052500078607B6818460C37BD465DF8047B704764
:1052600080B483B000AF786039603B681A687B68AF
:105270001A607B6818460C37BD465DF8047B7047A2
:1052800080B483B000AF78607B6818460C37BD46A9
:105290005DF8047B704780B483B000AF78603960FC
:1052A0003B681A687B681A607B6818460C37BD46F5
:1052B0005DF8047B704780B483B000AF78607B6892
:1052C00018460C37BD465DF8047B704780B584B046
:1052D00000AFF860B9607A60786800F063FB03465D
:1052E0001A46B968F86800F068FB00BF1037BD4681
:1052F00080BD0000B0B58CB000AFF860B9607A60D6
:105300003A4A0121F86800F06EFB0346FB62FB6835
:105310001B68BB62FB685B687B62F868FFF758FC40
:1053200003467B6107F1140207F108031146184692
:1053300000F0A0FB03463B62FB68F96A184600F0E8
:10534000AEFB0346FB61FB69BB61FC683B6A9B00EB
:10535000FA69D518786800F025FB03461A462946F5
:105360002046FFF7B3FF0023BB6107F1080318468F
:10537000FFF71AFF03461C68FB68184600F0B7FBEE
:105380000346FA692146B86A00F09DFBB861BB6923
:105390000433BB6107F108031846FFF705FF034616
:1053A0001C68FB68184600F0A2FB0346BA69796ADC
:1053B000204600F088FBB861F868FB689A68BB6A11
:1053C000D31A9B101A46B96A00F0AAFBFB68FA6967
:1053D0001A60FB68BA695A60FB6A9B00FA691A4452
:1053E000FB689A6000BF3037BD46B0BDC09203086D
:1053F00080B584B000AFF860B9607A60786800F07A
:10540000A2FB03461A46B968F86800F0A7FB00BF84
:105410001037BD4680BD0000B0B58CB000AFF8605D
:10542000B9607A603A4A0121F86800F0ADFB0346A2
:10543000FB62FB681B68BB62FB685B687B62F868A9
:10544000FFF71BFC03467B6107F1140207F1080319
:105450001146184600F0DFFB03463B62FB68F96A21
:10546000184600F0EDFB0346FB61FB69BB61FC687D
:105470003B6A9B00FA69D518786800F064FB034624
:105480001A4629462046FFF7B3FF0023BB6107F108
:1054900008031846FFF7A3FE03461C68FB6818467E
:1054A00000F0F6FB0346FA692146B86A00F0DCFB1F
:1054B000B861BB690433BB6107F108031846FFF705
:1054C0008EFE03461C68FB68184600F0E1FB0346AD
:1054D000BA69796A204600F0C7FBB861F868FB68D2
:1054E0009A68BB6AD31A9B101A46B96A00F0E9FBA6
:1054F000FB68FA691A60FB68BA695A60FB6A9B002C
:10550000FA691A44FB689A6000BF3037BD46B0BDE7
:10551000C092030880B584B000AFF860B9607A60CB
:10552000786800F0E1FB03461A46B968F86800F0B5
:10553000E6FB00BF1037BD4680BD0000B0B58CB0A3
:1055400000AFF860B9607A603A4A0121F86800F06B
:10555000ECFB0346FB62FB681B68BB62FB685B6895
:105560007B62F868FFF7DEFB03467B6107F11402FC
:1055700007F108031146184600F01EFC03463B6283
:10558000FB68F96A184600F02CFC0346FB61FB69D6
:10559000BB61FC683B6A9B00FA69D518786800F02B
:1055A000A3FB03461A4629462046FFF7B3FF002314
:1055B000BB6107F108031846FFF72CFE03461C6881
:1055C000FB68184600F035FC0346FA692146B86AC4
:1055D00000F01BFCB861BB690433BB6107F1080331
:1055E0001846FFF717FE03461C68FB68184600F0D4
:1055F00020FC0346BA69796A204600F006FCB861CF
:10560000F868FB689A68BB6AD31A9B101A46B96A95
:1056100000F028FCFB68FA691A60FB68BA695A60F6
:10562000FB6A9B00FA691A44FB689A6000BF303736
:10563000BD46B0BDC092030880B584B000AFF8602D
:10564000B9607A60786800F020FC03461A46B968B1
:10565000F86800F025FC00BF1037BD4680BD000093
:10566000B0B58CB000AFF860B9607A603A4A0121F9
:10567000F86800F02BFC0346FB62FB681B68BB620A
:10568000FB685B687B62F868FFF7A1FB03467B6100
:1056900007F1140207F108031146184600F05DFCFB
:1056A00003463B62FB68F96A184600F06BFC034650
:1056B000FB61FB69BB61FC683B6A9B00FA69D5181A
:1056C000786800F0E2FB03461A4629462046FFF7B9
:1056D000B3FF0023BB6107F108031846FFF7B5FDD0
:1056E00003461C68FB68184600F074FC0346FA6920
:1056F0002146B86A00F05AFCB861BB690433BB614B
:1057000007F108031846FFF7A0FD03461C68FB6875
:10571000184600F05FFC0346BA69796A204600F03B
:1057200045FCB861F868FB689A68BB6AD31A9B109D
:105730001A46B96A00F067FCFB68FA691A60FB68F0
:10574000BA695A60FB6A9B00FA691A44FB689A605E
:1057500000BF3037BD46B0BDC092030880B584B0ED
:1057600000AFF860B9607A60786800F05FFC0346CB
:105770001A46B968F86800F064FC00BF1037BD46EF
:1057800080BD0000B0B58CB000AFF860B9607A6041
:105790003A4A0121F86800F06AFC0346FB62FB68A4
:1057A0001B68BB62FB685B687B62F868FFF764FBA1
:1057B00003467B6107F1140207F1080311461846FE
:1057C00000F09CFC03463B62FB68F96A184600F057
:1057D000AAFC0346FB61FB69BB61FC683B6A9B005A
:1057E000FA69D518786800F021FC03461A46294664
:1057F0002046FFF7B3FF0023BB6107F108031846FB
:10580000FFF73EFD03461C68FB68184600F0B3FC3A
:105810000346FA692146B86A00F099FCB861BB6991
:105820000433BB6107F108031846FFF729FD03465F
:105830001C68FB68184600F09EFC0346BA69796A4A
:10584000204600F084FCB861F868FB689A68BB6A7F
:10585000D31A9B101A46B96A00F0A6FCFB68FA69D5
:105860001A60FB68BA695A60FB6A9B00FA691A44BD
:10587000FB689A6000BF3037BD46B0BDC0920308D8
:1058800080B584B000AFF860B9607A60786800F0E5
:105890009EFC03461A46B968F86800F0A3FC00BFF6
:1058A0001037BD4680BD0000B0B58CB000AFF860C9
:1058B000B9607A603A4A0121F86800F0A9FC034611
:1058C000FB62FB681B68BB62FB685B687B62F86815
:1058D000FFF727FB03467B6107F1140207F108037A
:1058E0001146184600F0DBFC03463B62FB68F96A90
:1058F000184600F0E9FC0346FB61FB69BB61FC68EC
:105900003B6A9B00FA69D518786800F060FC034692
:105910001A4629462046FFF7B3FF0023BB6107F173
:1059200008031846FFF7C7FC03461C68FB681846C7
:1059300000F0F2FC0346FA692146B86A00F0D8FC90
:10594000B861BB690433BB6107F108031846FFF770
:10595000B2FC03461C68FB68184600F0DDFC0346F9
:10596000BA69796A204600F0C3FCB861F868FB6840
:105970009A68BB6AD31A9B101A46B96A00F0E5FC14
:10598000FB68FA691A60FB68BA695A60FB6A9B0097
:10599000FA691A44FB689A6000BF3037BD46B0BD53
:1059A000C092030880B483B000AF78607B6818466B
:1059B0000C37BD465DF8047B704790B585B000AFED
:1059C000F860B9607A607868FFF7ECFF03461C68FE
:1059D000BB6819460420FEF739FF03461C6000BF70
:1059E0001437BD4690BD90B587B000AFF860B96080
:1059F0007A60F86800F0BCFC0446F86800F0C9FC66
:105A00000346E21ABB689A4234BF01230023DBB28B
:105A1000002B02D0786812F022FFF86800F0B9FC81
:105A20000446F86800F0B5FC03463B6107F1080244
:105A300007F110031146184600F0BBFC03461B6833
:105A400023447B61F86800F0A4FC02467B69934222
:105A500006D3F86800F08CFC02467B69934204D9B7
:105A6000F86800F085FC034600E07B6918461C37A7
:105A7000BD4690BD90B583B000AF7860396078685E
:105A8000FFF792FB03461C683868FFF78DFB03465F
:105A90001B68E31A9B1018460C37BD4690BD80B5B5
:105AA00082B000AF786039603B68002B06D07B681D
:105AB0003968184600F091FC034600E000231846C0
:105AC0000837BD4680BD90B589B002AFF860B960B7
:105AD0007A603B608DF800403B687A68B968F86886
